{
  "contractName": "Voting",
  "abi": [
    {
      "inputs": [],
      "stateMutability": "nonpayable",
      "type": "constructor"
    },
    {
      "anonymous": false,
      "inputs": [
        {
          "indexed": true,
          "internalType": "uint256",
          "name": "candidateId",
          "type": "uint256"
        },
        {
          "indexed": false,
          "internalType": "string",
          "name": "name",
          "type": "string"
        },
        {
          "indexed": false,
          "internalType": "string",
          "name": "party",
          "type": "string"
        }
      ],
      "name": "CandidateAdded",
      "type": "event"
    },
    {
      "anonymous": false,
      "inputs": [
        {
          "indexed": true,
          "internalType": "uint256",
          "name": "candidateId",
          "type": "uint256"
        },
        {
          "indexed": false,
          "internalType": "uint256",
          "name": "newVoteCount",
          "type": "uint256"
        }
      ],
      "name": "VoteCast",
      "type": "event"
    },
    {
      "anonymous": false,
      "inputs": [
        {
          "indexed": false,
          "internalType": "uint256",
          "name": "startTime",
          "type": "uint256"
        },
        {
          "indexed": false,
          "internalType": "uint256",
          "name": "endTime",
          "type": "uint256"
        }
      ],
      "name": "VotingPeriodSet",
      "type": "event"
    },
    {
      "inputs": [],
      "name": "admin",
      "outputs": [
        {
          "internalType": "address",
          "name": "",
          "type": "address"
        }
      ],
      "stateMutability": "view",
      "type": "function",
      "constant": true
    },
    {
      "inputs": [],
      "name": "candidateCount",
      "outputs": [
        {
          "internalType": "uint256",
          "name": "",
          "type": "uint256"
        }
      ],
      "stateMutability": "view",
      "type": "function",
      "constant": true
    },
    {
      "inputs": [
        {
          "internalType": "uint256",
          "name": "",
          "type": "uint256"
        }
      ],
      "name": "candidates",
      "outputs": [
        {
          "internalType": "uint256",
          "name": "id",
          "type": "uint256"
        },
        {
          "internalType": "string",
          "name": "name",
          "type": "string"
        },
        {
          "internalType": "string",
          "name": "party",
          "type": "string"
        },
        {
          "internalType": "uint256",
          "name": "voteCount",
          "type": "uint256"
        }
      ],
      "stateMutability": "view",
      "type": "function",
      "constant": true
    },
    {
      "inputs": [],
      "name": "endTime",
      "outputs": [
        {
          "internalType": "uint256",
          "name": "",
          "type": "uint256"
        }
      ],
      "stateMutability": "view",
      "type": "function",
      "constant": true
    },
    {
      "inputs": [
        {
          "internalType": "address",
          "name": "",
          "type": "address"
        }
      ],
      "name": "hasVoted",
      "outputs": [
        {
          "internalType": "bool",
          "name": "",
          "type": "bool"
        }
      ],
      "stateMutability": "view",
      "type": "function",
      "constant": true
    },
    {
      "inputs": [],
      "name": "startTime",
      "outputs": [
        {
          "internalType": "uint256",
          "name": "",
          "type": "uint256"
        }
      ],
      "stateMutability": "view",
      "type": "function",
      "constant": true
    },
    {
      "inputs": [
        {
          "internalType": "string",
          "name": "_name",
          "type": "string"
        },
        {
          "internalType": "string",
          "name": "_party",
          "type": "string"
        }
      ],
      "name": "addCandidate",
      "outputs": [],
      "stateMutability": "nonpayable",
      "type": "function"
    },
    {
      "inputs": [
        {
          "internalType": "uint256",
          "name": "_candidateId",
          "type": "uint256"
        }
      ],
      "name": "getCandidate",
      "outputs": [
        {
          "internalType": "uint256",
          "name": "",
          "type": "uint256"
        },
        {
          "internalType": "string",
          "name": "",
          "type": "string"
        },
        {
          "internalType": "string",
          "name": "",
          "type": "string"
        },
        {
          "internalType": "uint256",
          "name": "",
          "type": "uint256"
        }
      ],
      "stateMutability": "view",
      "type": "function",
      "constant": true
    },
    {
      "inputs": [],
      "name": "getAllCandidates",
      "outputs": [
        {
          "components": [
            {
              "internalType": "uint256",
              "name": "id",
              "type": "uint256"
            },
            {
              "internalType": "string",
              "name": "name",
              "type": "string"
            },
            {
              "internalType": "string",
              "name": "party",
              "type": "string"
            },
            {
              "internalType": "uint256",
              "name": "voteCount",
              "type": "uint256"
            }
          ],
          "internalType": "struct Voting.Candidate[]",
          "name": "",
          "type": "tuple[]"
        }
      ],
      "stateMutability": "view",
      "type": "function",
      "constant": true
    },
    {
      "inputs": [],
      "name": "getCandidateCount",
      "outputs": [
        {
          "internalType": "uint256",
          "name": "",
          "type": "uint256"
        }
      ],
      "stateMutability": "view",
      "type": "function",
      "constant": true
    },
    {
      "inputs": [
        {
          "internalType": "uint256",
          "name": "_startTime",
          "type": "uint256"
        },
        {
          "internalType": "uint256",
          "name": "_endTime",
          "type": "uint256"
        }
      ],
      "name": "setVotingPeriod",
      "outputs": [],
      "stateMutability": "nonpayable",
      "type": "function"
    },
    {
      "inputs": [],
      "name": "getVotingPeriod",
      "outputs": [
        {
          "internalType": "uint256",
          "name": "",
          "type": "uint256"
        },
        {
          "internalType": "uint256",
          "name": "",
          "type": "uint256"
        }
      ],
      "stateMutability": "view",
      "type": "function",
      "constant": true
    },
    {
      "inputs": [
        {
          "internalType": "uint256",
          "name": "_candidateId",
          "type": "uint256"
        }
      ],
      "name": "vote",
      "outputs": [],
      "stateMutability": "nonpayable",
      "type": "function"
    }
  ],
  "bytecode": "0x608060405234801561001057600080fd5b50600080546001600160a01b031916331790556110fe806100326000396000f3fe608060405234801561001057600080fd5b50600436106100cf5760003560e01c80633477ee2e1161008c57806378e979251161006657806378e97925146101b5578063a15a36c7146101be578063a9a981a3146101d1578063f851a440146101da57600080fd5b80633477ee2e1461016457806335b8e820146101875780633ecc6a431461019a57600080fd5b80630121b93f146100d457806309eef43e146100e957806326541b56146101215780632e6997fe1461013457806330a56347146101495780633197cbb61461015b575b600080fd5b6100e76100e2366004610c31565b610205565b005b61010c6100f7366004610c4a565b60056020526000908152604090205460ff1681565b60405190151581526020015b60405180910390f35b6100e761012f366004610cc3565b6103cb565b61013c6105c0565b6040516101189190610d75565b6001545b604051908152602001610118565b61014d60035481565b610177610172366004610c31565b6107e1565b6040516101189493929190610e11565b610177610195366004610c31565b61091a565b60025460035460408051928352602083019190915201610118565b61014d60025481565b6100e76101cc366004610e4e565b610ac2565b61014d60015481565b6000546101ed906001600160a01b031681565b6040516001600160a01b039091168152602001610118565b60025442101561025c5760405162461bcd60e51b815260206004820152601a60248201527f566f74696e6720686173206e6f7420737461727465642079657400000000000060448201526064015b60405180910390fd5b6003544211156102ae5760405162461bcd60e51b815260206004820152601860248201527f566f74696e672068617320616c726561647920656e64656400000000000000006044820152606401610253565b3360009081526005602052604090205460ff16156103075760405162461bcd60e51b8152602060048201526016602482015275165bdd481a185d9948185b1c9958591e481d9bdd195960521b6044820152606401610253565b60008111801561031957506001548111155b6103605760405162461bcd60e51b815260206004820152601860248201527710d85b991a59185d1948191bd95cc81b9bdd08195e1a5cdd60421b6044820152606401610253565b336000908152600560209081526040808320805460ff1916600190811790915584845260048352928190206003018054909301928390555191825282917fc31875ef3ed5138b71a0c1da7e494bc4d2ba4f567084ea481ec9c45f3a93948b910160405180910390a250565b6000546001600160a01b031633146103f55760405162461bcd60e51b815260040161025390610e70565b826104425760405162461bcd60e51b815260206004820152601e60248201527f43616e646964617465206e616d652063616e6e6f7420626520656d70747900006044820152606401610253565b8061048f5760405162461bcd60e51b815260206004820152601f60248201527f43616e6469646174652070617274792063616e6e6f7420626520656d707479006044820152606401610253565b6001805490600061049f83610ecc565b91905055506040518060800160405280600154815260200185858080601f016020809104026020016040519081016040528093929190818152602001838380828437600092019190915250505090825250604080516020601f860181900481028201810190925284815291810191908590859081908401838280828437600092018290525093855250505060209182018190526001805482526004835260409091208351815591830151908201906105579082610f7e565b506040820151600282019061056c9082610f7e565b50606082015181600301559050506001547fe64f834082661dd9ed89427b87edb6270fd6dad17198b0938f0edd058914c87f858585856040516105b29493929190611067565b60405180910390a250505050565b6060600060015467ffffffffffffffff8111156105df576105df610ee5565b60405190808252806020026020018201604052801561063b57816020015b6106286040518060800160405280600081526020016060815260200160608152602001600081525090565b8152602001906001900390816105fd5790505b50905060005b6001548110156107db576004600061065a836001611099565b81526020019081526020016000206040518060800160405290816000820154815260200160018201805461068d90610efb565b80601f01602080910402602001604051908101604052809291908181526020018280546106b990610efb565b80156107065780601f106106db57610100808354040283529160200191610706565b820191906000526020600020905b8154815290600101906020018083116106e957829003601f168201915b5050505050815260200160028201805461071f90610efb565b80601f016020809104026020016040519081016040528092919081815260200182805461074b90610efb565b80156107985780601f1061076d57610100808354040283529160200191610798565b820191906000526020600020905b81548152906001019060200180831161077b57829003601f168201915b505050505081526020016003820154815250508282815181106107bd576107bd6110b2565b602002602001018190525080806107d390610ecc565b915050610641565b50919050565b6004602052600090815260409020805460018201805491929161080390610efb565b80601f016020809104026020016040519081016040528092919081815260200182805461082f90610efb565b801561087c5780601f106108515761010080835404028352916020019161087c565b820191906000526020600020905b81548152906001019060200180831161085f57829003601f168201915b50505050509080600201805461089190610efb565b80601f01602080910402602001604051908101604052809291908181526020018280546108bd90610efb565b801561090a5780601f106108df5761010080835404028352916020019161090a565b820191906000526020600020905b8154815290600101906020018083116108ed57829003601f168201915b5050505050908060030154905084565b60006060806000808511801561093257506001548511155b6109795760405162461bcd60e51b815260206004820152601860248201527710d85b991a59185d1948191bd95cc81b9bdd08195e1a5cdd60421b6044820152606401610253565b6000858152600460205260409020805460038201546001830180549091600285019183906109a690610efb565b80601f01602080910402602001604051908101604052809291908181526020018280546109d290610efb565b8015610a1f5780601f106109f457610100808354040283529160200191610a1f565b820191906000526020600020905b815481529060010190602001808311610a0257829003601f168201915b50505050509250818054610a3290610efb565b80601f0160208091040260200160405190810160405280929190818152602001828054610a5e90610efb565b8015610aab5780601f10610a8057610100808354040283529160200191610aab565b820191906000526020600020905b815481529060010190602001808311610a8e57829003601f168201915b505050505091509450945094509450509193509193565b6000546001600160a01b03163314610aec5760405162461bcd60e51b815260040161025390610e70565b428211610b3b5760405162461bcd60e51b815260206004820181905260248201527f53746172742074696d65206d75737420626520696e20746865206675747572656044820152606401610253565b808210610b9b5760405162461bcd60e51b815260206004820152602860248201527f53746172742074696d65206d757374206265206561726c696572207468616e20604482015267656e642074696d6560c01b6064820152608401610253565b428111610bea5760405162461bcd60e51b815260206004820152601e60248201527f456e642074696d65206d75737420626520696e207468652066757475726500006044820152606401610253565b6002829055600381905560408051838152602081018390527f7e3f7f0708a84de9203036abaa450dccc85ad5ff52f78c170f3edb55cf5e8828910160405180910390a15050565b600060208284031215610c4357600080fd5b5035919050565b600060208284031215610c5c57600080fd5b81356001600160a01b0381168114610c7357600080fd5b9392505050565b60008083601f840112610c8c57600080fd5b50813567ffffffffffffffff811115610ca457600080fd5b602083019150836020828501011115610cbc57600080fd5b9250929050565b60008060008060408587031215610cd957600080fd5b843567ffffffffffffffff80821115610cf157600080fd5b610cfd88838901610c7a565b90965094506020870135915080821115610d1657600080fd5b50610d2387828801610c7a565b95989497509550505050565b6000815180845260005b81811015610d5557602081850181015186830182015201610d39565b506000602082860101526020601f19601f83011685010191505092915050565b60006020808301818452808551808352604092508286019150828160051b87010184880160005b83811015610e0357603f19898403018552815160808151855288820151818a870152610dca82870182610d2f565b9150508782015185820389870152610de28282610d2f565b60609384015196909301959095525094870194925090860190600101610d9c565b509098975050505050505050565b848152608060208201526000610e2a6080830186610d2f565b8281036040840152610e3c8186610d2f565b91505082606083015295945050505050565b60008060408385031215610e6157600080fd5b50508035926020909101359150565b60208082526026908201527f4f6e6c79207468652061646d696e2063616e20706572666f726d20746869732060408201526530b1ba34b7b760d11b606082015260800190565b634e487b7160e01b600052601160045260246000fd5b600060018201610ede57610ede610eb6565b5060010190565b634e487b7160e01b600052604160045260246000fd5b600181811c90821680610f0f57607f821691505b6020821081036107db57634e487b7160e01b600052602260045260246000fd5b601f821115610f7957600081815260208120601f850160051c81016020861015610f565750805b601f850160051c820191505b81811015610f7557828155600101610f62565b5050505b505050565b815167ffffffffffffffff811115610f9857610f98610ee5565b610fac81610fa68454610efb565b84610f2f565b602080601f831160018114610fe15760008415610fc95750858301515b600019600386901b1c1916600185901b178555610f75565b600085815260208120601f198616915b8281101561101057888601518255948401946001909101908401610ff1565b508582101561102e5787850151600019600388901b60f8161c191681555b5050505050600190811b01905550565b81835281816020850137506000828201602090810191909152601f909101601f19169091010190565b60408152600061107b60408301868861103e565b828103602084015261108e81858761103e565b979650505050505050565b808201808211156110ac576110ac610eb6565b92915050565b634e487b7160e01b600052603260045260246000fdfea2646970667358221220ddb05b6fc281af536745b025d87b4a895c6a6c9b66697813b08b3b20c804d08d64736f6c63430008110033",
  "immutableReferences": {},
  "source": "// SPDX-License-Identifier: MIT\r\npragma solidity ^0.8.17;\r\n\r\ncontract Voting {\r\n    struct Candidate {\r\n        uint256 id;\r\n        string name;\r\n        string party;\r\n        uint256 voteCount;\r\n    }\r\n\r\n    address public admin;\r\n    uint256 public candidateCount;\r\n    uint256 public startTime;\r\n    uint256 public endTime;\r\n    mapping(uint256 => Candidate) public candidates;\r\n    mapping(address => bool) public hasVoted;\r\n\r\n    event CandidateAdded(uint256 indexed candidateId, string name, string party);\r\n    event VoteCast(uint256 indexed candidateId, uint256 newVoteCount);\r\n    event VotingPeriodSet(uint256 startTime, uint256 endTime);\r\n\r\n    modifier onlyAdmin() {\r\n        require(msg.sender == admin, \"Only the admin can perform this action\");\r\n        _;\r\n    }\r\n\r\n    modifier votingActive() {\r\n        require(block.timestamp >= startTime, \"Voting has not started yet\");\r\n        require(block.timestamp <= endTime, \"Voting has already ended\");\r\n        _;\r\n    }\r\n\r\n    constructor() {\r\n        admin = msg.sender;\r\n    }\r\n\r\n    function addCandidate(string calldata _name, string calldata _party) external onlyAdmin {\r\n        require(bytes(_name).length > 0, \"Candidate name cannot be empty\");\r\n        require(bytes(_party).length > 0, \"Candidate party cannot be empty\");\r\n        \r\n        candidateCount++;\r\n        candidates[candidateCount] = Candidate(candidateCount, _name, _party, 0);\r\n        emit CandidateAdded(candidateCount, _name, _party);\r\n    }\r\n\r\n    function getCandidate(uint256 _candidateId) external view returns (uint256, string memory, string memory, uint256) {\r\n        require(_candidateId > 0 && _candidateId <= candidateCount, \"Candidate does not exist\");\r\n        Candidate storage candidate = candidates[_candidateId];\r\n        return (candidate.id, candidate.name, candidate.party, candidate.voteCount);\r\n    }\r\n\r\n    function getAllCandidates() external view returns (Candidate[] memory) {\r\n        Candidate[] memory allCandidates = new Candidate[](candidateCount);\r\n        for (uint256 i = 0; i < candidateCount; i++) {\r\n            allCandidates[i] = candidates[i + 1]; // Fix: Proper indexing\r\n        }\r\n        return allCandidates;\r\n    }\r\n\r\n    function getCandidateCount() external view returns (uint256) {\r\n        return candidateCount;\r\n    }\r\n\r\n    function setVotingPeriod(uint256 _startTime, uint256 _endTime) external onlyAdmin {\r\n        require(_startTime > block.timestamp, \"Start time must be in the future\"); // Fix: Prevent past start time\r\n        require(_startTime < _endTime, \"Start time must be earlier than end time\");\r\n        require(_endTime > block.timestamp, \"End time must be in the future\");\r\n        \r\n        startTime = _startTime;\r\n        endTime = _endTime;\r\n        emit VotingPeriodSet(_startTime, _endTime);\r\n    }\r\n\r\n    function getVotingPeriod() external view returns (uint256, uint256) {\r\n        return (startTime, endTime);\r\n    }\r\n\r\n    function vote(uint256 _candidateId) external votingActive {\r\n        require(!hasVoted[msg.sender], \"You have already voted\");\r\n        require(_candidateId > 0 && _candidateId <= candidateCount, \"Candidate does not exist\");\r\n        \r\n        hasVoted[msg.sender] = true;\r\n\r\n        unchecked {\r\n            candidates[_candidateId].voteCount++;\r\n        }\r\n        \r\n        emit VoteCast(_candidateId, candidates[_candidateId].voteCount);\r\n    }\r\n}\r\n",
  "sourcePath": "C:\\Users\\eliud\\Desktop\\V1.1\\contracts\\Voting.sol",
  "compiler": {
    "name": "solc",
    "version": "0.8.17+commit.8df45f5f.Emscripten.clang"
  },
  "schemaVersion": "3.4.16",
  "updatedAt": "2025-03-17T08:49:25.404Z",
  "networkType": "ethereum",
  "devdoc": {
    "kind": "dev",
    "methods": {},
    "version": 1
  },
  "userdoc": {
    "kind": "user",
    "methods": {},
    "version": 1
  }
}